{
  "contractName": "Election",
  "abi": [
    {
      "constant": true,
      "inputs": [],
      "name": "candidatesCount",
      "outputs": [
        {
          "name": "",
          "type": "uint256"
        }
      ],
      "payable": false,
      "stateMutability": "view",
      "type": "function"
    },
    {
      "constant": true,
      "inputs": [
        {
          "name": "",
          "type": "uint256"
        }
      ],
      "name": "candidates",
      "outputs": [
        {
          "name": "id",
          "type": "uint256"
        },
        {
          "name": "name",
          "type": "string"
        },
        {
          "name": "voteCount",
          "type": "uint256"
        }
      ],
      "payable": false,
      "stateMutability": "view",
      "type": "function"
    },
    {
      "constant": true,
      "inputs": [
        {
          "name": "",
          "type": "address"
        }
      ],
      "name": "voters",
      "outputs": [
        {
          "name": "",
          "type": "bool"
        }
      ],
      "payable": false,
      "stateMutability": "view",
      "type": "function"
    },
    {
      "inputs": [],
      "payable": false,
      "stateMutability": "nonpayable",
      "type": "constructor"
    },
    {
      "anonymous": false,
      "inputs": [
        {
          "indexed": true,
          "name": "_candidateId",
          "type": "uint256"
        }
      ],
      "name": "votedEvent",
      "type": "event"
    },
    {
      "constant": false,
      "inputs": [
        {
          "name": "_candidateId",
          "type": "uint256"
        }
      ],
      "name": "vote",
      "outputs": [],
      "payable": false,
      "stateMutability": "nonpayable",
      "type": "function"
    }
  ],
  "bytecode": "0x608060405234801561001057600080fd5b506100556040518060400160405280600981526020017f4976616e2049766963000000000000000000000000000000000000000000000081525061016a60201b60201c565b6100996040518060400160405280601081526020017f4976616e6b61204976616e6b6f7669630000000000000000000000000000000081525061016a60201b60201c565b6100dd6040518060400160405280600f81526020017f536d696c6a616e20536d696c6a6963000000000000000000000000000000000081525061016a60201b60201c565b6101216040518060400160405280600d81526020017f456c656e6120456c656e7669630000000000000000000000000000000000000081525061016a60201b60201c565b6101656040518060400160405280600e81526020017f4d6972656c61204d6972656c696300000000000000000000000000000000000081525061016a60201b60201c565b61028b565b6002600081548092919060010191905055506040518060600160405280600254815260200182815260200160008152506001600060025481526020019081526020016000206000820151816000015560208201518160010190805190602001906101d59291906101e6565b506040820151816002015590505050565b828054600181600116156101000203166002900490600052602060002090601f016020900481019282601f1061022757805160ff1916838001178555610255565b82800160010185558215610255579182015b82811115610254578251825591602001919060010190610239565b5b5090506102629190610266565b5090565b61028891905b8082111561028457600081600090555060010161026c565b5090565b90565b6103e08061029a6000396000f3fe608060405234801561001057600080fd5b506004361061004c5760003560e01c80630121b93f146100515780632d35a8a21461007f5780633477ee2e1461009d578063a3ec138d14610152575b600080fd5b61007d6004803603602081101561006757600080fd5b81019080803590602001909291905050506101ae565b005b6100876102cc565b6040518082815260200191505060405180910390f35b6100c9600480360360208110156100b357600080fd5b81019080803590602001909291905050506102d2565b6040518084815260200180602001838152602001828103825284818151815260200191508051906020019080838360005b838110156101155780820151818401526020810190506100fa565b50505050905090810190601f1680156101425780820380516001836020036101000a031916815260200191505b5094505050505060405180910390f35b6101946004803603602081101561016857600080fd5b81019080803573ffffffffffffffffffffffffffffffffffffffff169060200190929190505050610394565b604051808215151515815260200191505060405180910390f35b6000803373ffffffffffffffffffffffffffffffffffffffff1673ffffffffffffffffffffffffffffffffffffffff16815260200190815260200160002060009054906101000a900460ff161561020457600080fd5b60008111801561021657506002548111155b61021f57600080fd5b60016000803373ffffffffffffffffffffffffffffffffffffffff1673ffffffffffffffffffffffffffffffffffffffff16815260200190815260200160002060006101000a81548160ff0219169083151502179055506001600082815260200190815260200160002060020160008154809291906001019190505550807ffff3c900d938d21d0990d786e819f29b8d05c1ef587b462b939609625b684b1660405160405180910390a250565b60025481565b6001602052806000526040600020600091509050806000015490806001018054600181600116156101000203166002900480601f0160208091040260200160405190810160405280929190818152602001828054600181600116156101000203166002900480156103845780601f1061035957610100808354040283529160200191610384565b820191906000526020600020905b81548152906001019060200180831161036757829003601f168201915b5050505050908060020154905083565b60006020528060005260406000206000915054906101000a900460ff168156fea165627a7a723058201924d988711b6d0a25cac23b3e0e37735cb5902c4935456406ab6a314dc005a00029",
  "source": "pragma solidity ^0.5.0;\n\ncontract Election {\n    //Model a candidate\n    struct Candidate {\n      uint id;\n      string name;\n      uint voteCount;\n    }\n\n    //Sprema racune koji su glasali\n    mapping(address => bool) public voters;\n    //Sprema kandidate\n    //Dohvaca kandidate\n    mapping(uint => Candidate) public candidates;\n    //Store Candidates Counter\n    uint public candidatesCount;\n\n    //event za vote\n    event votedEvent (\n      uint indexed _candidateId\n      );\n    //\n    constructor() public {\n        addCandidate(\"Ivan Ivic\");\n      addCandidate(\"Ivanka Ivankovic\");\n      addCandidate(\"Smiljan Smiljic\");\n      addCandidate(\"Elena Elenvic\");\n      addCandidate(\"Mirela Mirelic\");\n    }\n\n    function addCandidate (string memory _name) private {\n    \n      candidatesCount ++;\n      candidates[candidatesCount] = Candidate(candidatesCount, _name, 0);\n    }\n\n    function vote (uint _candidateId) public {\n      //provjera da glasac nije glasao\n      require(!voters[msg.sender]);\n\n      //mora biti validan kandidat\n      require(_candidateId > 0 && _candidateId <= candidatesCount);\n\n      //spremi glas\n      voters[msg.sender] = true;\n\n      //Update broja glasova\n      candidates[_candidateId].voteCount ++;\n\n      //trigger event\n      emit votedEvent(_candidateId);\n    }\n\n}\n",
  "sourcePath": "/Users/kristijanbabic/election/contracts/Election.sol",
  "compiler": {
    "name": "solc",
    "version": "0.5.8+commit.23d335f2.Emscripten.clang"
  },
  "schemaVersion": "3.0.10",
  "updatedAt": "2019-06-09T11:05:39.889Z",
  "devdoc": {
    "methods": {}
  },
  "userdoc": {
    "methods": {}
  }
}